{"abi":[{"type":"constructor","inputs":[{"name":"tokenAddress","type":"address","internalType":"address"}],"stateMutability":"nonpayable"},{"type":"function","name":"claimVestedTokens","inputs":[],"outputs":[],"stateMutability":"nonpayable"},{"type":"function","name":"createVestingSchedule","inputs":[{"name":"_beneficiary","type":"address","internalType":"address"},{"name":"_totalAmount","type":"uint256","internalType":"uint256"},{"name":"_cliff","type":"uint256","internalType":"uint256"},{"name":"_duration","type":"uint256","internalType":"uint256"}],"outputs":[],"stateMutability":"nonpayable"},{"type":"function","name":"getVestedAmount","inputs":[{"name":"_beneficiary","type":"address","internalType":"address"}],"outputs":[{"name":"","type":"uint256","internalType":"uint256"}],"stateMutability":"view"},{"type":"function","name":"owner","inputs":[],"outputs":[{"name":"","type":"address","internalType":"address"}],"stateMutability":"view"},{"type":"function","name":"renounceOwnership","inputs":[],"outputs":[],"stateMutability":"nonpayable"},{"type":"function","name":"token","inputs":[],"outputs":[{"name":"","type":"address","internalType":"contract IERC20"}],"stateMutability":"view"},{"type":"function","name":"transferOwnership","inputs":[{"name":"newOwner","type":"address","internalType":"address"}],"outputs":[],"stateMutability":"nonpayable"},{"type":"function","name":"vestingSchedules","inputs":[{"name":"","type":"address","internalType":"address"}],"outputs":[{"name":"beneficiary","type":"address","internalType":"address"},{"name":"cliff","type":"uint256","internalType":"uint256"},{"name":"duration","type":"uint256","internalType":"uint256"},{"name":"totalAmount","type":"uint256","internalType":"uint256"},{"name":"releasedAmount","type":"uint256","internalType":"uint256"}],"stateMutability":"view"},{"type":"event","name":"OwnershipTransferred","inputs":[{"name":"previousOwner","type":"address","indexed":true,"internalType":"address"},{"name":"newOwner","type":"address","indexed":true,"internalType":"address"}],"anonymous":false},{"type":"error","name":"OwnableInvalidOwner","inputs":[{"name":"owner","type":"address","internalType":"address"}]},{"type":"error","name":"OwnableUnauthorizedAccount","inputs":[{"name":"account","type":"address","internalType":"address"}]},{"type":"error","name":"ReentrancyGuardReentrantCall","inputs":[]}],"bytecode":{"object":"0x60a060405234801562000010575f80fd5b506040516200140838038062001408833981810160405281019062000036919062000277565b335f73ffffffffffffffffffffffffffffffffffffffff168173ffffffffffffffffffffffffffffffffffffffff1603620000aa575f6040517f1e4fbdf7000000000000000000000000000000000000000000000000000000008152600401620000a19190620002b8565b60405180910390fd5b620000bb816200011f60201b60201c565b506001620000de620000d2620001e060201b60201c565b6200020960201b60201c565b5f01819055508073ffffffffffffffffffffffffffffffffffffffff1660808173ffffffffffffffffffffffffffffffffffffffff168152505050620002d3565b5f805f9054906101000a900473ffffffffffffffffffffffffffffffffffffffff169050815f806101000a81548173ffffffffffffffffffffffffffffffffffffffff021916908373ffffffffffffffffffffffffffffffffffffffff1602179055508173ffffffffffffffffffffffffffffffffffffffff168173ffffffffffffffffffffffffffffffffffffffff167f8be0079c531659141344cd1fd0a4f28419497f9722a3daafe3b4186f6b6457e060405160405180910390a35050565b5f7f9b779b17422d0df92223018b32b4d1fa46e071723d6817e2486d003becc55f005f1b905090565b5f819050919050565b5f80fd5b5f73ffffffffffffffffffffffffffffffffffffffff82169050919050565b5f620002418262000216565b9050919050565b620002538162000235565b81146200025e575f80fd5b50565b5f81519050620002718162000248565b92915050565b5f602082840312156200028f576200028e62000212565b5b5f6200029e8482850162000261565b91505092915050565b620002b28162000235565b82525050565b5f602082019050620002cd5f830184620002a7565b92915050565b608051611100620003085f395f81816101810152818161021c015281816102fc015281816106bc015261082b01526111005ff3fe608060405234801561000f575f80fd5b5060043610610086575f3560e01c8063e74f3fbb11610059578063e74f3fbb146100fe578063f2fde38b14610108578063fc0c546a14610124578063fdb20ccb1461014257610086565b80633f4e8e801461008a578063715018a6146100a65780638da5cb5b146100b0578063d5a73fdd146100ce575b5f80fd5b6100a4600480360381019061009f9190610bb2565b610176565b005b6100ae6104d3565b005b6100b86104e6565b6040516100c59190610c25565b60405180910390f35b6100e860048036038101906100e39190610c3e565b61050d565b6040516100f59190610c78565b60405180910390f35b6101066105f5565b005b610122600480360381019061011d9190610c3e565b6107a5565b005b61012c610829565b6040516101399190610cec565b60405180910390f35b61015c60048036038101906101579190610c3e565b61084d565b60405161016d959493929190610d05565b60405180910390f35b61017e61089e565b5f7f000000000000000000000000000000000000000000000000000000000000000073ffffffffffffffffffffffffffffffffffffffff166370a08231306040518263ffffffff1660e01b81526004016101d89190610c25565b602060405180830381865afa1580156101f3573d5f803e3d5ffd5b505050506040513d601f19601f820116820180604052508101906102179190610d6a565b90505f7f000000000000000000000000000000000000000000000000000000000000000073ffffffffffffffffffffffffffffffffffffffff166323b872dd3330886040518463ffffffff1660e01b815260040161027793929190610d95565b6020604051808303815f875af1158015610293573d5f803e3d5ffd5b505050506040513d601f19601f820116820180604052508101906102b79190610dff565b9050806102f9576040517f08c379a00000000000000000000000000000000000000000000000000000000081526004016102f090610e84565b60405180910390fd5b5f7f000000000000000000000000000000000000000000000000000000000000000073ffffffffffffffffffffffffffffffffffffffff166370a08231306040518263ffffffff1660e01b81526004016103539190610c25565b602060405180830381865afa15801561036e573d5f803e3d5ffd5b505050506040513d601f19601f820116820180604052508101906103929190610d6a565b90508583826103a19190610ecf565b146103e1576040517f08c379a00000000000000000000000000000000000000000000000000000000081526004016103d890610f4c565b60405180910390fd5b6040518060a001604052808873ffffffffffffffffffffffffffffffffffffffff1681526020018681526020018581526020018781526020015f81525060015f8973ffffffffffffffffffffffffffffffffffffffff1673ffffffffffffffffffffffffffffffffffffffff1681526020019081526020015f205f820151815f015f6101000a81548173ffffffffffffffffffffffffffffffffffffffff021916908373ffffffffffffffffffffffffffffffffffffffff1602179055506020820151816001015560408201518160020155606082015181600301556080820151816004015590505050505050505050565b6104db61089e565b6104e45f610925565b565b5f805f9054906101000a900473ffffffffffffffffffffffffffffffffffffffff16905090565b5f8073ffffffffffffffffffffffffffffffffffffffff1660015f8473ffffffffffffffffffffffffffffffffffffffff1673ffffffffffffffffffffffffffffffffffffffff1681526020019081526020015f205f015f9054906101000a900473ffffffffffffffffffffffffffffffffffffffff1673ffffffffffffffffffffffffffffffffffffffff16036105a7575f90506105f0565b6105ed60015f8473ffffffffffffffffffffffffffffffffffffffff1673ffffffffffffffffffffffffffffffffffffffff1681526020019081526020015f20426109e6565b90505b919050565b6105fd610a4f565b5f60015f3373ffffffffffffffffffffffffffffffffffffffff1673ffffffffffffffffffffffffffffffffffffffff1681526020019081526020015f2090505f61064882426109e6565b90505f82600401548261065b9190610ecf565b90505f811161069f576040517f08c379a000000000000000000000000000000000000000000000000000000000815260040161069690610fb4565b60405180910390fd5b80836004015f8282546106b29190610fd2565b925050819055505f7f000000000000000000000000000000000000000000000000000000000000000073ffffffffffffffffffffffffffffffffffffffff1663a9059cbb33846040518363ffffffff1660e01b8152600401610715929190611005565b6020604051808303815f875af1158015610731573d5f803e3d5ffd5b505050506040513d601f19601f820116820180604052508101906107559190610dff565b905080610797576040517f08c379a000000000000000000000000000000000000000000000000000000000815260040161078e90610e84565b60405180910390fd5b505050506107a3610a71565b565b6107ad61089e565b5f73ffffffffffffffffffffffffffffffffffffffff168173ffffffffffffffffffffffffffffffffffffffff160361081d575f6040517f1e4fbdf70000000000000000000000000000000000000000000000000000000081526004016108149190610c25565b60405180910390fd5b61082681610925565b50565b7f000000000000000000000000000000000000000000000000000000000000000081565b6001602052805f5260405f205f91509050805f015f9054906101000a900473ffffffffffffffffffffffffffffffffffffffff16908060010154908060020154908060030154908060040154905085565b6108a6610a8b565b73ffffffffffffffffffffffffffffffffffffffff166108c46104e6565b73ffffffffffffffffffffffffffffffffffffffff1614610923576108e7610a8b565b6040517f118cdaa700000000000000000000000000000000000000000000000000000000815260040161091a9190610c25565b60405180910390fd5b565b5f805f9054906101000a900473ffffffffffffffffffffffffffffffffffffffff169050815f806101000a81548173ffffffffffffffffffffffffffffffffffffffff021916908373ffffffffffffffffffffffffffffffffffffffff1602179055508173ffffffffffffffffffffffffffffffffffffffff168173ffffffffffffffffffffffffffffffffffffffff167f8be0079c531659141344cd1fd0a4f28419497f9722a3daafe3b4186f6b6457e060405160405180910390a35050565b5f82600101548210156109fb575f9050610a49565b5f836001015483610a0c9190610ecf565b905083600201548110610a26578360030154915050610a49565b8360020154818560030154610a3b919061102c565b610a45919061109a565b9150505b92915050565b610a57610a92565b6002610a69610a64610ad3565b610afc565b5f0181905550565b6001610a83610a7e610ad3565b610afc565b5f0181905550565b5f33905090565b610a9a610b05565b15610ad1576040517f3ee5aeb500000000000000000000000000000000000000000000000000000000815260040160405180910390fd5b565b5f7f9b779b17422d0df92223018b32b4d1fa46e071723d6817e2486d003becc55f005f1b905090565b5f819050919050565b5f6002610b18610b13610ad3565b610afc565b5f015414905090565b5f80fd5b5f73ffffffffffffffffffffffffffffffffffffffff82169050919050565b5f610b4e82610b25565b9050919050565b610b5e81610b44565b8114610b68575f80fd5b50565b5f81359050610b7981610b55565b92915050565b5f819050919050565b610b9181610b7f565b8114610b9b575f80fd5b50565b5f81359050610bac81610b88565b92915050565b5f805f8060808587031215610bca57610bc9610b21565b5b5f610bd787828801610b6b565b9450506020610be887828801610b9e565b9350506040610bf987828801610b9e565b9250506060610c0a87828801610b9e565b91505092959194509250565b610c1f81610b44565b82525050565b5f602082019050610c385f830184610c16565b92915050565b5f60208284031215610c5357610c52610b21565b5b5f610c6084828501610b6b565b91505092915050565b610c7281610b7f565b82525050565b5f602082019050610c8b5f830184610c69565b92915050565b5f819050919050565b5f610cb4610caf610caa84610b25565b610c91565b610b25565b9050919050565b5f610cc582610c9a565b9050919050565b5f610cd682610cbb565b9050919050565b610ce681610ccc565b82525050565b5f602082019050610cff5f830184610cdd565b92915050565b5f60a082019050610d185f830188610c16565b610d256020830187610c69565b610d326040830186610c69565b610d3f6060830185610c69565b610d4c6080830184610c69565b9695505050505050565b5f81519050610d6481610b88565b92915050565b5f60208284031215610d7f57610d7e610b21565b5b5f610d8c84828501610d56565b91505092915050565b5f606082019050610da85f830186610c16565b610db56020830185610c16565b610dc26040830184610c69565b949350505050565b5f8115159050919050565b610dde81610dca565b8114610de8575f80fd5b50565b5f81519050610df981610dd5565b92915050565b5f60208284031215610e1457610e13610b21565b5b5f610e2184828501610deb565b91505092915050565b5f82825260208201905092915050565b7f5472616e73666572206661696c656400000000000000000000000000000000005f82015250565b5f610e6e600f83610e2a565b9150610e7982610e3a565b602082019050919050565b5f6020820190508181035f830152610e9b81610e62565b9050919050565b7f4e487b71000000000000000000000000000000000000000000000000000000005f52601160045260245ffd5b5f610ed982610b7f565b9150610ee483610b7f565b9250828203905081811115610efc57610efb610ea2565b5b92915050565b7f496e636f727265637420616d6f756e74207265636569766564000000000000005f82015250565b5f610f36601983610e2a565b9150610f4182610f02565b602082019050919050565b5f6020820190508181035f830152610f6381610f2a565b9050919050565b7f4e6f7468696e6720746f20636c61696d000000000000000000000000000000005f82015250565b5f610f9e601083610e2a565b9150610fa982610f6a565b602082019050919050565b5f6020820190508181035f830152610fcb81610f92565b9050919050565b5f610fdc82610b7f565b9150610fe783610b7f565b9250828201905080821115610fff57610ffe610ea2565b5b92915050565b5f6040820190506110185f830185610c16565b6110256020830184610c69565b9392505050565b5f61103682610b7f565b915061104183610b7f565b925082820261104f81610b7f565b9150828204841483151761106657611065610ea2565b5b5092915050565b7f4e487b71000000000000000000000000000000000000000000000000000000005f52601260045260245ffd5b5f6110a482610b7f565b91506110af83610b7f565b9250826110bf576110be61106d565b5b82820490509291505056fea2646970667358221220ffce18bec82aebd2153311bf204c5c7ee383a671d191835ad97d627ff94cd3ca64736f6c63430008140033","linkReferences":{}},"methodIdentifiers":{"claimVestedTokens()":"e74f3fbb","createVestingSchedule(address,uint256,uint256,uint256)":"3f4e8e80","getVestedAmount(address)":"d5a73fdd","owner()":"8da5cb5b","renounceOwnership()":"715018a6","token()":"fc0c546a","transferOwnership(address)":"f2fde38b","vestingSchedules(address)":"fdb20ccb"},"id":29}